:100000000C94DF000C9407010C9407010C94070179
:100010000C9407010C9407010C9407010C94070140
:100020000C9407010C9407010C9407010C94070130
:100030000C9407010C9407010C9407010C94070120
:100040000C94D8030C9407010C94CB020C94A502D9
:100050000C9407010C9407010C9407010C94070100
:100060000C9407010C94070108000000BE9224497B
:10007000123EABAAAA2ABECDCCCC4C3E00000080DA
:10008000BEABAAAAAA3E00000000BF000000803F4D
:100090000000000000084178D3BB4387D1133D190D
:1000A0000E3CC3BD4282AD2B3E68EC8276BED98F3A
:1000B000E1A93E4C80EFFFBE01C4FF7F3F0000007E
:1000C00000004661696C656420746F20616363653C
:1000D00073732045746865726E657420636F6E7407
:1000E000726F6C6C65720045000082000040002059
:1000F0006382536300010800060400010000000051
:10010000240027002A0000000000250028002B0002
:100110000000000023002600290004040404040455
:1001200004040202020202020303030303030102A6
:100130000408102040800102040810200102040875
:100140001020000000080002010000030407000066
:10015000000000000000485454502F312E3020324F
:100160003030204F4B0D0A436F6E74656E742D5402
:100170007970653A206170706C69636174696F6E43
:100180002F6A736F6E0D0A507261676D613A206E4F
:100190006F2D63616368650D0A0D0A7B2254656DDE
:1001A0007065726174757261223A24442E24447D14
:1001B0002C2257696C676F746E6F9C004B12112470
:1001C0001FBECFEFD8E0DEBFCDBF11E0A0E0B1E0B1
:1001D000EEE0FCE202C005900D92A435B107D9F71C
:1001E00024E0A4E5B1E001C01D92A936B207E1F711
:1001F00010E0CFEDD0E004C02197FE010E94D7159A
:10020000CE3DD107C9F70E948F0A0C9405160C94B5
:100210000000CF92DF92EF92FF920F931F93CF9344
:10022000DF936C017A018B01C0E0D0E0CE15DF05D1
:1002300089F0D8016D918D01D601ED91FC9101906D
:10024000F081E02DC6010995892B11F47E0102C0D1
:100250002196ECCFC701DF91CF911F910F91FF90B5
:10026000EF90DF90CF900895FC01538D448D252FA2
:1002700030E0842F90E0821B930B541710F0CF9640
:10028000089501970895FC01918D828D981761F072
:10029000828DDF01A80FB11D5D968C91928D9F5FBD
:1002A0009F73928F90E008958FEF9FEF0895FC0168
:1002B000918D828D981731F0828DE80FF11D858D1B
:1002C00090E008958FEF9FEF0895FC01918D228DAE
:1002D000892F90E0805C9F4F821B91098F73992733
:1002E00008958EEB93E00E94650121E0892B09F4CB
:1002F00020E0822F0895FC01848DDF01A80FB11D3D
:10030000A35ABF4F2C91848D90E001968F7399274B
:10031000848FA689B7892C93A089B1898C91806438
:100320008C93938D848D981306C00288F389E02DF9
:1003300080818F7D80830895EF92FF920F931F93AA
:10034000CF93DF93EC0181E0888F9B8D8C8D981388
:1003500005C0E889F989808185FD24C0F62E0B8DC2
:1003600010E00F5F1F4F0F731127E02E8C8DE812E6
:100370000CC00FB607FCFACFE889F989808185FFA8
:10038000F5CFCE010E947B01F1CF8B8DFE01E80FEE
:10039000F11DE35AFF4FF0820B8FEA89FB898081C0
:1003A000806207C0EE89FF896083E889F9898081CE
:1003B0008064808381E090E0DF91CF911F910F9165
:1003C000FF90EF900895CF93DF93EC01888D882301
:1003D000C9F0EA89FB89808185FD05C0A889B989B2
:1003E0008C9186FD0FC00FB607FCF5CF808185FF8D
:1003F000F2CFA889B9898C9185FFEDCFCE010E94FB
:100400007B01E7CFDF91CF91089580E090E0892BC9
:1004100029F00E94710181110C940000089583302D
:1004200081F028F4813099F08230A1F0089587306E
:10043000A9F08830B9F08430D1F4809180008F7DAC
:1004400003C0809180008F7780938000089584B5E9
:100450008F7702C084B58F7D84BD08958091B000F0
:100460008F7703C08091B0008F7D8093B000089596
:100470003FB7F8948091BE019091BF01A091C00157
:10048000B091C10126B5A89B05C02F3F19F0019678
:10049000A11DB11D3FBFBA2FA92F982F8827820F0A
:1004A000911DA11DB11DBC01CD0142E0660F771F5A
:1004B000881F991F4A95D1F70895E091B601F091F0
:1004C000B7019F012F5F3F4F3093B7012093B601D3
:1004D00080830895EF92FF920F931F93CF93DF9342
:1004E0001F92CDB7DEB7062F142F59830E945D02ED
:1004F000802F0E945D02E12E5981F52E100F1E15EE
:1005000031F0F70181917F010E945D02F8CF0F90D9
:10051000DF91CF911F910F91FF90EF900895DC0133
:100520001696ED91FC9117979F012F5F3F4F1796FD
:100530003C932E931697608381E090E00895089590
:1005400080E090E008950E94EC151F920F920FB684
:100550000F9211242F933F934F935F936F937F9349
:100560008F939F93AF93BF93EF93FF938EEB93E0A3
:100570000E947B01FF91EF91BF91AF919F918F916D
:100580007F916F915F914F913F912F910F900FBE8F
:100590000F901F9018951F920F920FB60F92112473
:1005A0002F938F939F93EF93FF93E091CE03F0915E
:1005B000CF038081E091D403F091D50382FD12C076
:1005C00090818091D7038F5F8F732091D80382171A
:1005D00051F0E091D703F0E0E254FC4F958F809307
:1005E000D70301C08081FF91EF919F918F912F914F
:1005F0000F900FBE0F901F901895CF93DF93282F69
:1006000030E0F901EE5BFE4F8491F901E25DFE4FAF
:10061000D491F901E65EFE4FC491CC2391F0811193
:100620000E940F02EC2FF0E0EE0FFF1FE05FFE4F85
:10063000A591B491EC91ED2381E090E021F480E06C
:1006400002C080E090E0DF91CF9108951F93CF9397
:10065000DF93282F30E0F901EE5BFE4F8491F90122
:10066000E25DFE4FD491F901E65EFE4FC491CC23CA
:10067000C9F0162F81110E940F02EC2FF0E0EE0F4F
:10068000FF1FEA5FFE4FA591B4918FB7F894111147
:1006900005C09C91ED2FE095E92302C0EC91ED2B74
:1006A000EC938FBFDF91CF911F910895CF93DF938C
:1006B00090E0FC01E25DFE4F2491FC01E65EFE4FFE
:1006C0008491882361F190E0880F991FFC01E45028
:1006D000FF4FC591D491FC01EA5FFE4FA591B49103
:1006E000611109C09FB7F89488812095822388837F
:1006F000EC912E230BC0623061F49FB7F8943881DF
:10070000822F809583238883EC912E2B2C939FBF7F
:1007100006C08FB7F894E8812E2B28838FBFDF9116
:10072000CF9108958F929F92AF92BF92CF92DF9216
:10073000EF92FF926B017C010E9438024B015C0139
:10074000C114D104E104F104F1F00E943802DC018B
:10075000CB0188199909AA09BB09883E9340A105D4
:10076000B10570F321E0C21AD108E108F10888EE62
:10077000880E83E0981EA11CB11CC114D104E104B1
:10078000F10419F7DDCFFF90EF90DF90CF90BF908D
:10079000AF909F908F9008952FB7F8946091BA0111
:1007A0007091BB018091BC019091BD012FBF089554
:1007B0001F920F920FB60F9211242F933F938F9396
:1007C0009F93AF93BF938091BA019091BB01A09189
:1007D000BC01B091BD013091B90123E0230F2D3749
:1007E00020F40196A11DB11D05C026E8230F029635
:1007F000A11DB11D2093B9018093BA019093BB0153
:10080000A093BC01B093BD018091BE019091BF0146
:10081000A091C001B091C1010196A11DB11D8093AD
:10082000BE019093BF01A093C001B093C101BF91DD
:10083000AF919F918F913F912F910F900FBE0F908D
:100840001F901895DC0196E0FB0101900D929A959E
:10085000E1F70895FB014081518162817381FC01C0
:1008600040835183628373830895CF93DF93EB01B9
:1008700044E050E0BC0186EE91E00E94F115892B26
:1008800039F460EE71E0CE010E94220481E001C0E3
:1008900080E0DF91CF9108958091DA0190E0982F68
:1008A00088272091DB01822B44972091F80130E0CA
:1008B00044E0359527954A95E1F7220F331F220F23
:1008C000331F821B930B97FF02C080E090E00895D6
:1008D0002091EE013091EC013093EE012093EC0178
:1008E0002091EF013091ED013093EF012093ED0164
:1008F00024EF31E0A8EFB1E0F9014291840F911D9E
:100900004E918C93662311F0408301C01082892F91
:10091000992744E04E0F4213F0CF1092FC01109241
:10092000FD0180E58093F8010895BC018AEC91E017
:100930000E9422046EE571E080ED91E00C942204A7
:10094000CF93DF9300D0CDB7DEB769837A830E945F
:10095000950469817A8188EE91E00E942A0466EC10
:1009600071E084EE91E00F900F90DF91CF910C94A5
:100970002A040F931F93CF93DF9370E066537E4F4B
:10098000213021F48A01075F1F4F0CC0223039F05B
:1009900000E010E09801DB011196EA0106C08A012F
:1009A0000250110920E030E0F6CFC230D10578F0D6
:1009B000FD013197E081F0E0FE2FEE279C91E92BBD
:1009C0000E0F1F1F211D311D22971296EECFFA0127
:1009D000EE7FE60FF71F40FF0CC0408150E060E063
:1009E00070E0762F652F542F4427040F151F261F04
:1009F000371FA90166277727411551056105710544
:100A000019F022273327F1CF00951095E82FF0E059
:100A1000E653FE4F10830183DF91CF911F910F9119
:100A20000895EAECF1E0108E118E80E4848B158A33
:100A3000868B20E044E150E06EE088E10C94B9043C
:100A400080ED91E00E94950464EE71E088EE91E003
:100A50000E942A0466EC71E084EE91E00E942A0470
:100A60000C9411058EBD0DB407FEFDCF089561E015
:100A7000809154010E94260378940895F89460E0D0
:100A8000809154010C9426030F931F93CF93DF930F
:100A9000EC018B010E943E052097B9F08AE30E9489
:100AA00032051EBCF801CE01019739F00DB407FEE6
:100AB000FDCF2EB51EBC2193F7CF2197C00FD11FBC
:100AC0000DB407FEFDCF8EB58883DF91CF911F91C6
:100AD0000F910C943705CF93DF9300D01F92CDB7C1
:100AE000DEB74B836A8389830E943E056A816F71FA
:100AF0008981862B0E9432054B81842F0E9432050A
:100B00000F900F900F90DF91CF910C9437051F93AA
:100B1000CF93DF93182F1076C12FD0E02091B8012A
:100B200030E0C217D307A1F043E06FE180EA0E94F2
:100B30006B051093B801AE0185E0559547958A95F0
:100B4000E1F76FE180E8DF91CF911F910C946B0585
:100B5000DF91CF911F9108951F93CF93DF931F9241
:100B6000CDB7DEB7182F69830E9487054981612FB1
:100B700080E40F90DF91CF911F910C946B051F9330
:100B8000CF93DF931F92CDB7DEB7182F79830E94E2
:100B9000AC057981672F81E0810F0F90DF91CF91B4
:100BA0001F910C94AC051F93CF93DF931F92CDB789
:100BB000DEB7182F0E9487050E943E05812F8F7196
:100BC0000E94320580E00E94320517FF03C080E0DA
:100BD0000E9432058EB589830E94370589810F9066
:100BE000DF91CF911F910895CF93DF93EC0140E8FF
:100BF0006FE180E80E946B0540E86FE180EA0E94A7
:100C00006B054AE06CE180EA0E946B0560E07CE0E5
:100C100082E00E94BF05BE01745F86E00E94BF05AE
:100C200040E060E08AE70E946B050E943E05209745
:100C300051F40E94370548E06FE180E80E946B059F
:100C4000C0E0D0E01CC08AE70E9432058091CA0152
:100C50008EBDEBECF1E0C653DE4FEC17FD0731F033
:100C600081910DB407FEFDCF8EBDF7CF0DB407FE09
:100C7000FDCFDFCF2196C83E83E0D80729F08CE175
:100C80000E94D3058A70B1F38CE10E94D30581FDE7
:100C900003C0C83ED34039F448E06FE180EADF91F9
:100CA000CF910C946B05DF91CF9108950F931F9313
:100CB000CF938C018DE291E00E949504EAECF1E083
:100CC00088E08487C6E0C58748E050E064EF70E0C4
:100CD00088ED91E00E94D912EAEEF1E0DF011D9269
:100CE000CA95E9F76EE571E080EE91E00E9422047A
:100CF000B80180EF91E00E942A0466EC71E086EE74
:100D000091E00E942A048AE290E0CF911F910F9116
:100D10000C94F4050F931F93CF93DF938C01889667
:100D2000CAECD1E0988B898B0E9411051AAA1BAAE4
:100D3000A801445E5F4F22E06AE182E30E94B904A9
:100D4000C801C696DF91CF911F910F910C94F405C5
:100D5000262F20612093F901643021F0009711F4CF
:100D600081E090E061E00E9468041092DA0188E27C
:100D70008093DB010E94200584E08093FA011092A9
:100D8000FB0122E04CE150E06AE182E30E94B904F9
:100D900086E390E00C94F405CF92DF92EF92FF92FD
:100DA0000F931F938634910568F12091ED01233450
:100DB00049F5C090F801D090F901E090FA01F09067
:100DC000FB010091590110915A0120915B01309172
:100DD0005C01C016D106E206F306A1F4E4EEF2E0EF
:100DE00086539E4F9F012E5F3F4F41815081553367
:100DF00019F45281561741F0F901E40FF11DE8177B
:100E0000F90780F380E001C081E01F910F91FF900E
:100E1000EF90DF90CF900895FF920F931F93CF93A1
:100E2000DF938C0186E191E0EAECF1E0DF019C01C7
:100E30001D9221503040E1F780915D01833019F01F
:100E4000CDE2D1E002C0C5E5D1E0CE010E94710A39
:100E5000BE01882319F088E691E002C08EE691E099
:100E60000E94A0048881807F803E91F088819981D2
:100E7000AA81BB818F3F9F4FAF4FBF4F49F044E0E6
:100E800050E0BE0184E691E00E94F115892B31F417
:100E90006DE271E08AEC91E00E94220488E0809388
:100EA000D6011092D70149E050E067EE70E088ED7E
:100EB00091E00E94D9121092DA0181E18093E10160
:100EC0001092EE0183E48093EF011092EC0184E430
:100ED0008093ED011092F0011092F2011092F30153
:100EE0006DE271E08AEC91E00E94220481E080933F
:100EF000F4018093F50186E08093F6018091590119
:100F000090915A01A0915B01B0915C018093F8012E
:100F10009093F901A093FA01B093FB0180915D01D8
:100F2000833031F466EC71E080E092E00E942A04A4
:100F30006EE571E080E192E00E94220480EE92E092
:100F40009093B7018093B601C0EFD0E0FC2E84E00F
:100F5000F80EFE0184910E945D022196FC12F9CFE9
:100F600085E30E945D0281E00E945D0280915D0147
:100F7000882311F083E001C081E00E945D028DE3CF
:100F80000E945D0287E00E945D0281E00E945D0296
:100F9000CEE5D1E0FC2E26E0F20EFC1621F0899180
:100FA0000E945D02FACF80910C01882371F0ECE081
:100FB000F1E001900020E9F73197BF016C507140DA
:100FC0004CE051E08CE00E946A020115110559F0D5
:100FD000A80164E082E30E946A0245E551E064E012
:100FE00086E30E946A0287E30E945D0283E00E941A
:100FF0005D0281E00E945D0283E00E945D0286E066
:101000000E945D028FEF0E945D02C091B601D091F7
:10101000B701C45FD140CE014C969093DA01809322
:10102000DB010E941105CE0108969093F001809398
:10103000F101AE01405F5F4F21E06AE188E20E946A
:10104000B904CE018A96DF91CF911F910F91FF9045
:101050000C94F405CF93DF93EC01FB018A309105EA
:1010600048F06AE070E00E94B815CB01BF010E9411
:101070002A08FC01CE016AE070E00E94B815805D8C
:1010800080831182CF010196DF91CF910895CF9394
:10109000DF93EC0161E088810E94260361E0888192
:1010A0000E94560361E089810E94260360E08881E6
:1010B0000E94260360E089810E94260387E090E079
:1010C0000197F1F761E089810E94260361E0888140
:1010D0000E94260360E08981DF91CF910C94260362
:1010E000DF92EF92FF920F931F93CF93DF93EC0168
:1010F000D62E61E088810E94560318E000E887E060
:10110000E82EF12C602F6D2188810E94260361E07A
:1011100089810E942603C7010197F1F760E0898168
:101120000E9426030695115069F760E088810E94AD
:10113000560361E088810E94260361E089810E9454
:10114000260387E090E00197F1F788810E94FD0275
:101150008C0160E089810E94260381E0012B09F463
:1011600080E0DF91CF911F910F91FF90EF90DF9082
:101170000895FB0190818927808398E021E3808195
:1011800087FF03C0880F822701C0880F808391509A
:10119000B1F70895FF920F931F93CF93DF93F82E2B
:1011A000D8E0C0E061E0809164040E942603809151
:1011B00063040E94FD02CC0F8C010C2BC02F60E059
:1011C000809164040E942603D15061F761E0809110
:1011D00063040E94560391E06F2D69278091630498
:1011E0000E94260361E0809164040E94260387E048
:1011F00090E00197F1F760E0809164040E9426037B
:1012000060E0809163040E94560361E08091630472
:101210000E942603802FDF91CF911F910F91FF90A5
:101220000895CF92DF92EF92FF920F931F93CF9387
:10123000DF93CDB7DEB78E01015F1F4F96E5E92E34
:1012400091E0F92EC7010196F7012491222309F4B8
:10125000D1C0243271F0E0916104F0916204AF01D9
:101260004F5F5F4F509362044093610420837C0181
:10127000E9CFF2E0EF0EF11CFC019491963409F4F1
:101280006EC05CF49434B9F0953409F097C0F8015D
:10129000808191810E5F1F4F7AC04091610450910F
:1012A00062049C3409F443C0933509F44DC098346A
:1012B00009F084C00EC06801F2E0CF0ED11C60912D
:1012C000610470916204F801808191810E942A0872
:1012D00082C0B8016E5F7F4FF8019081292F092EDF
:1012E000000C330B84E0359527958A95E1F72F7034
:1012F0009F709A300CF0995F905D2A300CF0295F56
:10130000FA013196F0936204E0936104205DFA01E2
:101310002083E0916104F09162049F012F5F3F4FB1
:10132000309362042093610490838B018BCF68011A
:10133000F4E0CF0ED11CF80160817181828193812C
:101340002AE00E94E21247C06801F2E0CF0ED11CF1
:10135000F80160817181CA010E94FE153CC0F8014C
:101360000190F081E02D0E5F1F4F8491319688230C
:1013700009F468CFA0916104B09162049D012F5FD0
:101380003F4F30936204209361048C93EECF6C0145
:10139000FFEFCF1ADF0A0E942313882309F452CFEC
:1013A000E0916104F09162049F012F5F3F4F309301
:1013B0006204209361048083C601E9CFE091610457
:1013C000F09162049F012F5F3F4F3093620420939E
:1013D0006104908337CFE0916104F0916204019041
:1013E0000020E9F7CF010197909362048093610494
:1013F000860128CFDF91CF911F910F91FF90EF9041
:10140000DF90CF9008951F93CF93DF93182FEB01B8
:1014100020916704277038E090E0822F8170990F47
:10142000982B26953150C9F79093680483E694E091
:101430000E944708112311F015E001C013E0612F4D
:1014400083E694E00E947008811147C068E674E06A
:10145000812F0E94B90810EF809163040E94FD0261
:10146000892B49F01150C1F163E070E080E090E019
:101470000E949203F1CF81E00E94CA08182F68E60B
:1014800074E00E94B908812F90E09983888381E0FD
:101490000E94CA08182F68E674E00E94B90820E08C
:1014A00030E03881212B3983288380E00E94CA08EC
:1014B000282F88E090E0322F3170990F932B2695DA
:1014C0008150C9F720916804921739F08FEF9FEF90
:1014D0009983888382E001C083E0DF91CF911F91DF
:1014E0000895CF93DF932091C6012223A1F0FC0140
:1014F0002081222381F0A6ECB1E0C2ECD1E08D91F5
:10150000219199918227892331F481E0AA3CB8077F
:10151000B1F781E001C080E0DF91CF910895CF93D2
:10152000DF93CDB7DEB760970FB6F894DEBF0FBE7E
:10153000CDBF789484B5826084BD84B5816084BD5C
:1015400085B5826085BD85B5816085BD80916E0061
:10155000816080936E001092810080918100826092
:1015600080938100809181008160809381008091CF
:1015700080008160809380008091B10084608093BE
:10158000B1008091B00081608093B00080917A00BA
:10159000846080937A0080917A00826080937A00E0
:1015A00080917A00816080937A0080917A008068CF
:1015B00080937A001092C100E091CE03F091CF03A6
:1015C00082E08083E091CA03F091CB031082E09126
:1015D000CC03F091CD038FEC80831092D603E09181
:1015E000D203F091D30386E08083E091D003F091A1
:1015F000D103808180618083E091D003F091D10399
:10160000808188608083E091D003F091D103808154
:1016100080688083E091D003F091D10380818F7D39
:1016200080831092A70187E390E001E010E020E0C2
:1016300030E00097D1F0FC0173E0F595E7957A95DD
:10164000E1F7EC58FE4F482F47706801790104C05C
:10165000CC0CDD1CEE1CFF1C4A95D2F7B701A6018D
:10166000A0814A2B40830197E4CF64E071E08EE5CE
:1016700091E00E94220484EF91E090937C0180939A
:101680007B010CB406FC25C061E08AE00E94560391
:1016900061E08AE00E94260361E08BE00E9456032D
:1016A00061E08DE00E94560360E08CE00E945603EA
:1016B00061E08BE00E94260360E08BE00E9426033D
:1016C00060E08DE00E94260380E58CBD8DB58160D1
:1016D0008DBD8AE08093540161E00E9456030E9410
:1016E00037054FEF60E08FEF0E946B0562E070E01E
:1016F00080E090E00E9492030E943E058DE10E94EE
:10170000320580E00E9432051EB50E943705112384
:1017100099F360E070E088E00E94BF0560E070E04F
:101720008CE00E94BF056FEF7BE08AE00E94BF055E
:1017300060E07CE084E00E94BF056FEF71E186E02D
:101740000E94BF0561EB88E30E94AC056FE370E384
:1017500088E20E94BF0569EF77EF80E30E94BF0532
:101760006DE080EC0E94AC0560E081EC0E94AC056D
:1017700042E362EC80E80E946B0562E17CE086EC6B
:101780000E94BF0562E184EC0E94AC056CED75E03F
:101790008AEC0E94BF0560915E0184EE0E94AC0558
:1017A00060915F0185EE0E94AC056091600182EE60
:1017B0000E94AC056091610183EE0E94AC056091CE
:1017C000620180EE0E94AC056091630181EE0E948F
:1017D000AC0560E184ED0E94AC0560E071E086ED4F
:1017E0000E94BF058AEE0E94D30580FDFBCF8FE1EA
:1017F0000E94870540EC6BE180E80E946B0544E0A5
:101800006FE180E80E946B0582E70E94D305863075
:1018100008F08F5F81111EC002EC10E0F8016491A6
:10182000611109C042E050E061E571E08EEB93E0A8
:101830000E9409010FC0E091BE03F091BF03019027
:10184000F081E02D8EEB93E009950F5F1F4F892B00
:1018500029F7E8CF1092A70160E071E086EC91E0F3
:101860000E942A0422EC31E064E671E0E6ECF1E04B
:1018700044E04E0F9191D9018D919D018095892B66
:10188000DB018D93BD014E13F5CF1092A50110928F
:10189000A40111E020908F0130909001C0908D0143
:1018A000D0908E01DC86CB863E862D86E09091011D
:1018B000F0909201F88AEF8680917F01882389F069
:1018C00060917D0170917E016115710519F46FEFD2
:1018D0007BE002C0615071098CE00E94BF0510924C
:1018E0007F0189E30E94D3058823C9F160917D01BE
:1018F00070917E0180E00E94BF05BE016F5F7F4F47
:1019000086E090E00E94440589819A8190937E014F
:1019100080937D01EB80FC8080917B0190917C0124
:101920002D8127FF0EC0019724E0E21AF1088E15E1
:101930009F0508F47C016AEC71E0C7010E94440530
:1019400002C0E12CF12CF701E653FE4F10821093F8
:101950007F0140E46EE180E80E946B0502C0E12C4B
:10196000F12C8091A701882309F43EC180915D018B
:10197000823009F489C030F4882381F1813009F480
:101980004EC032C1833021F0843009F47DC02CC1B7
:101990008090890190908A01A0908B01B0908C0179
:1019A0008FEF88169806A806B80609F41DC10E9494
:1019B000CC03409085015090860160908701709023
:1019C0008801DC01CB0184199509A609B70988159E
:1019D0009905AA05BB0508F01AC206C10E94CC03EE
:1019E0006093590170935A0180935B0190935C015D
:1019F0001092C6011092C7011092C8011092C9013D
:101A000080E090E00E940C0788E30E94D305682FD5
:101A1000616088E30E94AC0510935D012AC062E01A
:101A2000C7010E94CC068823A9F164E072E0CE01D0
:101A300001960E942A04E4EEF2E0C70186539E4F0D
:101A4000BF016E5F7F4F21813081363329F485E5F8
:101A500091E00E942A0406C0FB01E20FF11DE81785
:101A6000F90770F3CE0101960E940C0782E0809383
:101A70005D010E94CC036093810170938201809389
:101A8000830190938401B0C065E0C7010E94CC0639
:101A9000811119C00E94CC03809081019090820135
:101AA000A0908301B0908401DC01CB0188199909D1
:101AB000AA09BB0981319742A105B10508F494C078
:101AC00010925D0191C080918001811108C088E36E
:101AD0000E94D305682F6E7F88E30E94AC0564E006
:101AE00072E086EC91E00E942A04E4EEF2E0C70185
:101AF00086539E4F5C016F0192E0C90ED11C91800C
:101B000080818630A9F048F4813071F0833009F08B
:101B100045C0B60180EA91E00EC08A3379F08F3F6C
:101B2000D9F18333D9F50AC0B60182EC91E003C044
:101B3000B6018BE991E00E942A0430C0D6013696A6
:101B400020E030E0A9018D91742F632F522F44279C
:101B50009A01AB01280F311D411D511DAE17BF0762
:101B600091F72093890130938A0140938B01509320
:101B70008C012F3FAFEF3A074A075A0779F0A8EEDA
:101B8000B3E00E94CC156093890170938A01809321
:101B90008B0190938C0102C081E001C080E0F601CE
:101BA000E90DF11D811104C0EA15FB0508F4A3CF6E
:101BB0000E94CC0360938501709386018093870116
:101BC000909388018091A001882359F01092A5017B
:101BD0001092A4011093A60160EA71E0CB010E946B
:101BE0002A0483E080935D01E114F10409F0BEC092
:101BF0008091A6018570E1F08091A4019091A501EA
:101C0000892BB1F461E184ED0E94AC0561E082EDC5
:101C10000E94AC058AEE0E94D30580FDFBCF60E0F8
:101C200082ED0E94AC0589ED0E94D30582FDF5C0CE
:101C30008091A4019091A50101969093A5018093B4
:101C4000A40180919F01813009F071C08091A601AB
:101C500081FF6DC082E080939F0180910B018F5FB7
:101C600080930B01082F0F7185E991E00E94710AA2
:101C700065E971E0882319F088E691E002C08EE6FC
:101C800091E00E94A00448E0F42EF092D601109258
:101C9000D70149E050E067EE70E088ED91E00E94E6
:101CA000D9128CE28093DB0186E08093E1010E94EF
:101CB00011051092EE011092EF018BE08093EC0180
:101CC0000093ED01E0EFF1E0DF011D92FA94E9F7F6
:101CD00080910A018093F2018D5F80930A0180E672
:101CE0008093F80182E08093F90193E09093FA01E8
:101CF0001092FB011092FC011092FD011092FE0166
:101D00001092FF018093000294E09093010280936F
:101D1000020286E28093030222E040E250E06AE1A0
:101D200082E30E94B9048AE390E00E94F4058BE903
:101D300091E00E94710A882349F080919A018111F3
:101D400005C080919901882309F471C085E991E06B
:101D50000E94710A882309F457C08091940181116F
:101D600053C08091930181114FC068C0B9E2EB1656
:101D7000F10408F449C08091D601883009F044C0CC
:101D80008091D701863009F094C044E050E066ECC1
:101D900071E080EF91E00E94F115892BA9F5809107
:101DA000DF01813029F580ED91E00E9495041092C9
:101DB000DE0182E08093DF0160EE71E08AEE91E067
:101DC0000E9422046EE571E080EE91E00E94220400
:101DD00066EE71E080EF91E00E942A0466EC71E00B
:101DE00086EE91E00E942A048AE290E00E94F405C7
:101DF0008091A60183FD29C080919A01882391F1E9
:101E0000809194018823D9F10E94050255CD86EC7A
:101E100091E00E940C0784E02ACE80EA91E00E94C3
:101E200056068091A60188608093A60101CF8BE9B8
:101E300091E00E9456061093990188CF85E991E0C0
:101E40000E94560610939301DFCF0091DF0102300C
:101E500099F66EE671E080EA91E00E943504811106
:101E600020C0CACF80919901882351F268E671E0C1
:101E70008BE991E00E943504811116C0C1CF809199
:101E80009301882309F268E671E085E991E00E94F8
:101E90003504882309F4B8CF10939401109293016C
:101EA000B3CF0093A601A8CF10939A011092990185
:101EB000A7CF99E2E916F10409F4A6CF8111A4CFC6
:101EC0008091D801853409F09FCF44E050E066EC62
:101ED00071E088EE91E00E94F115892BA9F044E0B1
:101EE00050E064E671E088EE91E00E94F115892BE4
:101EF00059F044E050E06DE271E088EE91E00E941C
:101F0000F115892B09F080CF8091E101813001F535
:101F10008091EC01883009F077CFCF84D888C11444
:101F2000D10421F084EE91E0F60109950E9420058C
:101F30001092EC018091EE01883F28F09091EF0122
:101F40009F5F9093EF01885F8093EE01C701F2C01D
:101F5000F6E3EF16F10408F457CF863009F054CFBA
:101F60008091EE018B3009F0A2C044E050E065E9B9
:101F700071E084EE91E00E94F115892B09F044CFC5
:101F80000091F90102FF13C0CD84DE84C114D10495
:101F900061F08091EF0120E030E040E050E063E04C
:101FA000829586958770F601099585E068C00E9444
:101FB0004C046C0180919F01823069F5802F807103
:101FC00002710231E9F460E080E090E00E94A8062E
:101FD00088E18093F901CB84DC84C114D10441F001
:101FE0008091ED01829586958770F601099502C072
:101FF00080E090E023E020939F010E948A0604CFB6
:1020000010939F01811103C0C601019602C080E0B8
:1020100090E064E049C08330A9F5C114D104A9F16E
:102020002114310491F18091F80190E024E095951C
:1020300087952A95E1F7880F991F880F991F829637
:10204000A701485051098417950708F4AC01C6014F
:10205000840F951FE816F90620F49701241B350B11
:1020600001C096018091EF0160E0829586958770AE
:10207000F101099569E0C6010E94A80686E08093F7
:102080009F01C2CE853009F4BFCE00FF07C0833068
:1020900009F4BACE69E0C6010196EECFC114D104AD
:1020A00009F4B2CE60E0C6010E94A806ADCE81114F
:1020B000ABCE8091EF01803509F0A6CE0091F901F9
:1020C00001FF3BC01092DA018CE28093DB010E9499
:1020D000200582E18093F90160E081E090E00E94B8
:1020E00068041092F0011092F10180910A0180932E
:1020F000F2011092F3018D5F80930A0182E08093D8
:10210000000284E08093010285E080930202109235
:10211000030290E69093F8018093FA0188E7809398
:10212000FB0122E040E250E06AE182E30E94B90450
:102130008AE390E00E94F40567CE04FF65CE0E941A
:102140004C049093A9018093A801892B89F0809178
:10215000F80190E0B4E095958795BA95E1F7880F7E
:10216000991F880F991F8296E816F90638F44CCE0D
:1021700000FF4ACE60E080E090E096CFBE016F5F46
:102180007F4F80E00E94030A811134C169817A8106
:102190002091670480E090E020FF07C00E940F14A8
:1021A0002AE037ED43E25DE306C00E940F142AE007
:1021B00037ED43E25CE30E94161526E636E640E280
:1021C00052E40E942B136093B2017093B301809389
:1021D000B4019093B501BE016F5F7F4F81E00E9413
:1021E000030A811107C14090B2015090B301609081
:1021F000B4017090B50169817A812091670480E013
:1022000090E020FF37C00E940F146B017C012DEB82
:1022100032E546E15FE30E94161525EC3EEF42E011
:1022200050E40E942B134B015C012BE335E246ED99
:1022300059EBC701B6010E941615A70196010E942D
:1022400016159B01AC01C501B4010E942C134B0172
:102250005C0120E030E048EC51E4C301B2010E948F
:102260002B136F83788789879A872CEA35EC47EAA6
:102270005AE336C00E940F146B017C012DEB32E54E
:1022800046E15DE30E94161525EC3EEF42E050E486
:102290000E942B134B015C0126EF34E246ED55EB17
:1022A000C701B6010E941615A70196010E941615D6
:1022B0009B01AC01C501B4010E942C134B015C01D0
:1022C00020E030E048EC51E4C301B2010E942B133E
:1022D0006F83788789879A872CEA35EC47EA58E339
:1022E000C701B6010E9416152AE037ED43E25CE310
:1022F0000E942C139B01AC016F81788589859A859A
:102300000E941615A50194010E942C136B017C01FB
:1023100020E030E048EC52E40E94C114181694F01A
:102320002DEC3CEC4CEC5DE3C701B6010E94981328
:1023300087FF0EC0ADECCA2EACECDA2EED2CADE36F
:10234000FA2E06C0C12CD12CF8ECEF2EF2E4FF2EB1
:10235000C092AE01D092AF01E092B001F092B10113
:1023600020E030E048EC52E4C701B6010E949D1322
:102370000E94CE146B017C0123EC35EF4CE851E454
:10238000C301B2010E9416154B015C0128EB3EE12E
:1023900043E753E4C301B2010E942C139B01AC013B
:1023A000C501B4010E949D139B01AC01C701B60198
:1023B0000E942C136B017C0128EB3EE143E753E4C0
:1023C0000E9416154B015C01A701960163EC75EFA5
:1023D0008CE891E40E942B139B01AC01C501B40170
:1023E0000E949D136093AA017093AB018093AC018E
:1023F0009093AD010E94CC038091B2019091B30102
:102400002091B4013091B5014091AE015091AF01DE
:102410006091B0017091B10110925E0410925D0460
:10242000E0E0CE2EE2E0DE2ED0926004C0925F04A7
:10243000D0926204C09261047F936F935F934F9335
:102440003F932F939F938F93A6E5B1E0BF93AF93F4
:10245000ABE5B4E0BF93AF930E941109E090610433
:10246000F090620480915F0490916004E81AF90A88
:1024700060E08091A8019091A9010E94A80689E1DD
:102480008093F901C7010E948A060FB6F894DEBF57
:102490000FBECDBFB9CC0F931F93CF931092C10342
:1024A0001092C00388EE93E0A0E0B0E08093C203F6
:1024B0009093C303A093C403B093C50387E391E053
:1024C0009093BF038093BE0385EC90E09093CB0381
:1024D0008093CA0384EC90E09093CD038093CC0367
:1024E00080EC90E09093CF038093CE0381EC90E05A
:1024F0009093D1038093D00382EC90E09093D30328
:102500008093D20386EC90E09093D5038093D4031C
:102510001092D7031092D8031092D9031092DA03C5
:1025200088E08093630489E08093640410926604D9
:10253000109265041092670461E00E94560361E006
:10254000809163040E94260361E0809163040E94ED
:10255000560387E090E00197F1F7C9E007E010E04B
:1025600061E0809164040E942603C8010197F1F79D
:1025700060E0809164040E942603C8010197F1F78E
:10258000C15071F783E694E00E9447086EE183E64C
:1025900094E00E94700810925E0410925D0489E439
:1025A00091E090935C0480935B04CF911F910F9115
:1025B0000895FB01DC0102C005900D92415050408E
:1025C000D8F70895BB272A3051F4992342F4BDE28D
:1025D00090958095709561957F4F8F4F9F4F0C948C
:1025E000F212BB27FA01A62F62177105810591052A
:1025F000330B30FB66F0AA27660F771F881F991FE1
:10260000AA1FA21710F0A21B63953850A9F7A05D6E
:10261000AA3308F0A95DA19336F7B111B1931082E6
:10262000CA010C941313DC01FC01672F719177230D
:10263000E1F7329704C07C916D9370836291AE177D
:10264000BF07C8F30895F999FECF92BD81BDF89AEE
:10265000992780B508955058BB27AA270E94431395
:102660000C9487140E94791438F00E94801420F092
:1026700039F49F3F19F426F40C9476140EF4E09587
:10268000E7FB0C947014E92F0E94981458F3BA17C2
:10269000620773078407950720F079F4A6F50C9478
:1026A000BA140EF4E0950B2EBA2FA02D0B01B90130
:1026B00090010C01CA01A0011124FF27591B99F0B8
:1026C000593F50F4503E68F11A16F040A22F232FC4
:1026D000342F4427585FF3CF469537952795A79514
:1026E000F0405395C9F77EF41F16BA0B620B730BBB
:1026F000840BBAF09150A1F0FF0FBB1F661F771F2C
:10270000881FC2F70EC0BA0F621F731F841F48F4E0
:10271000879577956795B795F7959E3F08F0B0CF69
:102720009395880F08F09927EE0F97958795089550
:102730000E944C1408F481E008950E94B1130C9497
:1027400087140E94801458F00E94791440F029F4F4
:102750005F3F29F00C94701451110C94BB140C942D
:1027600076140E94981468F39923B1F3552391F3DA
:10277000951B550BBB27AA2762177307840738F0F0
:102780009F5F5F4F220F331F441FAA1FA9F335D04D
:102790000E2E3AF0E0E832D091505040E695001C01
:1027A000CAF72BD0FE2F29D0660F771F881FBB1FBB
:1027B000261737074807AB07B0E809F0BB0B802D99
:1027C000BF01FF2793585F4F3AF09E3F510578F0C5
:1027D0000C9470140C94BB145F3FE4F3983ED4F354
:1027E000869577956795B795F7959F5FC9F7880F99
:1027F000911D9695879597F90895E1E0660F771FEB
:10280000881FBB1F621773078407BA0720F0621B7B
:10281000730B840BBA0BEE1F88F7E0950895E894CC
:1028200009C097FB3EF490958095709561957F4F18
:102830008F4F9F4F9923A9F0F92F96E9BB279395C6
:10284000F695879577956795B795F111F8CFFAF4D6
:10285000BB0F11F460FF1BC06F5F7F4F8F4F9F4F07
:1028600016C0882311F096E911C0772321F09EE865
:10287000872F762F05C0662371F096E8862F70E0CB
:1028800060E02AF09A95660F771F881FDAF7880FA5
:102890009695879597F90895990F0008550FAA0BFB
:1028A000E0E8FEEF16161706E807F907C0F0121663
:1028B0001306E407F50798F0621B730B840B950B66
:1028C00039F40A2661F0232B242B252B21F40895BB
:1028D0000A2609F4A140A6958FEF811D811D089558
:1028E00097F99F6780E870E060E008959FEF80ECC3
:1028F000089500240A941616170618060906089566
:1029000000240A9412161306140605060895092ECB
:102910000394000C11F4882352F0BB0F40F4BF2B3A
:1029200011F460FF04C06F5F7F4F8F4F9F4F08957A
:1029300057FD9058440F551F59F05F3F71F0479570
:10294000880F97FB991F61F09F3F79F08795089555
:10295000121613061406551FF2CF4695F1DF08C074
:10296000161617061806991FF1CF86957105610591
:1029700008940895E894BB2766277727CB0197F939
:1029800008950E944C1408F48FEF089516F00C94EB
:1029900083150C94761468940C9470140E94A014FF
:1029A000A8F39923C1F3AEF3DF93CF931F930F9353
:1029B000FF92C92FDD2788232AF02197660F771F02
:1029C000881FDAF720E030E040E85FEB9FE38839CA
:1029D00020F0803E38F021968F770E942C13E8E695
:1029E000F0E004C00E942C13E5E9F0E00E9491158C
:1029F0008B01BE01EC01FB2E6F5771097595771F96
:102A0000880B990B0E94111428E132E741E35FE340
:102A10000E942915AF2D9801AE01FF900F911F91D3
:102A2000CF91DF910E9443130C9487140E942915C3
:102A30000C9487140E94791438F00E94801420F0BE
:102A4000952311F00C9470140C94761411240C94AA
:102A5000BB140E94981470F3959FC1F3950F50E03A
:102A6000551F629FF001729FBB27F00DB11D639F40
:102A7000AA27F00DB11DAA1F649F6627B00DA11DE6
:102A8000661F829F2227B00DA11D621F739FB00D8C
:102A9000A11D621F839FA00D611D221F749F3327FC
:102AA000A00D611D231F849F600D211D822F762F95
:102AB0006A2F11249F5750409AF0F1F088234AF072
:102AC000EE0FFF1FBB1F661F771F881F91505040DE
:102AD000A9F79E3F510580F00C9470140C94BB1420
:102AE0005F3FE4F3983ED4F3869577956795B79565
:102AF000F795E7959F5FC1F7FE2B880F911D96957F
:102B0000879597F908959F3F31F0915020F487956C
:102B100077956795B795880F911D9695879597F945
:102B20000895DF93CF931F930F93FF92EF92DF925D
:102B30007B018C01689406C0DA2EEF010E942915F2
:102B4000FE01E894A5912591359145915591A6F303
:102B5000EF010E944313FE019701A801DA9469F77F
:102B6000DF90EF90FF900F911F91CF91DF9108952B
:102B7000AA1BBB1B51E107C0AA1FBB1FA617B707A3
:102B800010F0A61BB70B881F991F5A95A9F78095BF
:102B90009095BC01CD0108950E94DD15A59F900D73
:102BA000B49F900DA49F800D911D11240895EE0FE8
:102BB000FF1F0590F491E02D0994A29FB001B39FEF
:102BC000C001A39F700D811D1124911DB29F700D36
:102BD000811D1124911D089581E090E0F8940C94DA
:102BE0000516FB01DC0104C08D910190801921F4D0
:102BF00041505040C8F7881B990B0895FB01DC0138
:0E2C000001900D920020E1F70895F894FFCFA7
:102C0E00C0A801CB7469692D30310A014172647517
:102C1E00696E6F2D454E4332386A36302D30300096
:102C2E0000000000000000000000000000FFFFFF99
:102C3E00FFFFFF000000009C0109013401E3016564
:102C4E000143015701000000008F020901A0029FFD
:042C5E00020D0A0059
:00000001FF
