:100000000C9463000C948B000C948B000C94BA0439
:100010000C94BA040C94BA040C948B000C948B00CE
:100020000C948B000C948B000C948B000C948B0024
:100030000C948B000C948B000C948B000C948B0014
:100040000C9470040C948B000C943E040C941804D3
:100050000C948B000C948B000C948B000C948B00F4
:100060000C948B000C948B000000000024002700EF
:100070002A0000000008000201000003040700003D
:1000800000000000000000000000250028002B00F8
:1000900000000000230026002900040404040404D6
:1000A0000404020202020202030303030303010227
:1000B00004081020408001020408102001020408F6
:1000C00010203405790911241FBECFEFD8E0DEBF20
:1000D000CDBF11E0A0E0B1E0EAECF3E102C0059091
:1000E0000D92A235B107D9F723E0A2E5B1E001C036
:1000F0001D92AF31B207E1F710E0C2E6D0E004C0D4
:100100002197FE010E94CD09C136D107C9F70E948F
:10011000DF050C94D8090C940000CF92DF92EF9287
:10012000FF920F931F93CF93DF936C017A018B01A2
:10013000C0E0D0E0CE15DF0589F0D8016D918D01CA
:10014000D601ED91FC910190F081E02DC601099559
:10015000892B11F47E0102C02196ECCFC701DF91FB
:10016000CF911F910F91FF90EF90DF90CF90089566
:10017000FC01538D448D252F30E0842F90E0821BAD
:10018000930B541710F0CF96089501970895FC0132
:10019000918D828D981761F0828DDF01A80FB11DBE
:1001A0005D968C91928D9F5F9F73928F90E00895E2
:1001B0008FEF9FEF0895FC01918D828D981731F09C
:1001C000828DE80FF11D858D90E008958FEF9FEFF0
:1001D0000895FC01918D228D892F90E0805C9F4FC6
:1001E000821B91098F739927089583E692E00E94FC
:1001F000E90021E0892B09F420E0822F0895FC0119
:10020000848DDF01A80FB11DA35ABF4F2C91848D9F
:1002100090E001968F739927848FA689B7892C93D4
:10022000A089B1898C9180648C93938D848D98136F
:1002300006C00288F389E02D80818F7D8083089538
:10024000EF92FF920F931F93CF93DF93EC0181E026
:10025000888F9B8D8C8D981305C0E889F9898081E2
:1002600085FD24C0F62E0B8D10E00F5F1F4F0F731E
:100270001127E02E8C8DE8120CC00FB607FCFACFC8
:10028000E889F989808185FFF5CFCE010E94FF00C2
:10029000F1CF8B8DFE01E80FF11DE35AFF4FF08285
:1002A0000B8FEA89FB898081806207C0EE89FF8914
:1002B0006083E889F98980818064808381E090E0AF
:1002C000DF91CF911F910F91FF90EF900895CF9301
:1002D000DF93EC01888D8823C9F0EA89FB8980814E
:1002E00085FD05C0A889B9898C9186FD0FC00FB620
:1002F00007FCF5CF808185FFF2CFA889B9898C9161
:1003000085FFEDCFCE010E94FF00E7CFDF91CF91B7
:10031000089580E090E0892B29F00E94F50081117A
:100320000C940000089590E0FC01EE58FF4F3491CA
:10033000FC01E255FF4F2491FC01E656FF4FE4918A
:10034000EE2309F43BC0332339F1333091F038F414
:100350003130A9F0323001F584B58F7D12C03730CD
:1003600091F03830A1F03430B9F4809180008F7D65
:1003700003C0809180008F77809380000DC084B58A
:100380008F7784BD09C08091B0008F7703C08091C2
:10039000B0008F7D8093B000F0E0EE0FFF1FEA57B2
:1003A000FF4FA591B4918FB7F894EC91611103C000
:1003B00020952E2301C02E2B2C938FBF0895CF9311
:1003C000DF9390E0FC01E255FF4F2491FC01E656DB
:1003D000FF4F8491882361F190E0880F991FFC0101
:1003E000E859FF4FC591D491FC01EA57FF4FA59101
:1003F000B491611109C09FB7F89488812095822338
:100400008883EC912E230BC0623061F49FB7F8947F
:100410003881822F809583238883EC912E2B2C9317
:100420009FBF06C08FB7F894E8812E2B28838FBF1B
:10043000DF91CF9108953FB7F89480919701909103
:100440009801A0919901B0919A0126B5A89B05C089
:100450002F3F19F00196A11DB11D3FBFBA2FA92F43
:10046000982F8827820F911DA11DB11DBC01CD01C0
:1004700042E0660F771F881F991F4A95D1F70895AC
:1004800008954BEA51E0FA012FEF3FEF9E2F941BA6
:10049000981788F49191292798E0B901617077271E
:1004A00036952795672B21F061E0262760EA3627ED
:1004B000915099F7EBCF922F832F089520919D01B2
:1004C00030919E012817390771F490919B0180911A
:1004D0009C01981741F0E0919B01F0E0EE5AFE4F2D
:1004E000808190E008958FEF9FEF08951F93CF9341
:1004F000DF93DC015C962D913C915D9721153105D0
:1005000039F481E090E013969C938E9312973DC04E
:100510005196ED91FC91529750969C915097892F4E
:1005200080951FB75E964C915E9741FB772770F9D7
:1005300041FD6095F8944081772311F0492B01C06B
:1005400048234083E9012197F1F748E0508160FF9B
:1005500002C0592B01C058235083E9012197F1F7BC
:100560006695415099F7772321F090818923808304
:1005700003C08081982B90831FBF5C968D919C91C6
:100580005D970197F1F721E030E0C901DF91CF914C
:100590001F910895EF92FF920F931F93CF93DF93D4
:1005A000D82FC091A101C23020F061E08C2F0E94B1
:1005B00093019BEAE92E91E0F92E8701802F8E1995
:1005C0008D1740F4F80161918F0180E093E00E9463
:1005D0007602F4CFE0919F01F091A001E230F105A5
:1005E00038F0EE0FFF1FEE0FFF1F35973197F1F731
:1005F000C23050F060E08C2FDF91CF911F910F91AE
:10060000FF90EF900C949301DF91CF911F910F9188
:10061000FF90EF9008952091A7013091A8012F5FDE
:100620003F4F3093A8012093A7019091A60191110B
:1006300015C09091A5019093AB019091A401906891
:100640009093AC018093AD0183E00E9441029093AE
:10065000AE018093AF0185E00C94CA020895209109
:100660009D0130919E012817390771F480919C01FA
:1006700020919B0190E0805C9F4F821B910960E478
:1006800070E00E948309089580E090E00895209131
:100690009D0130919E0128173907B9F490919B0173
:1006A00080919C01981789F0E0919B01F0E0EE5A4F
:1006B000FE4F808120919B0130E02F5F3F4F2F73D1
:1006C000332720939B0190E008958FEF9FEF0895CB
:1006D000E0919D01F0919E01E817F90769F4A38963
:1006E000B4899C918589809589238C9310929E0171
:1006F00010929D0181E0089580E00895089580E0C2
:1007000090E00895009769F0FC0101900020E9F75E
:100710003197AF01481B590BBC0183E692E00C9462
:100720008D0080E090E008958F929F92AF92BF92EB
:10073000CF92DF92EF92FF920F931F93CF93DF93AD
:10074000CDB7DEB7A1970FB6F894DEBF0FBECDBF11
:100750006C01990FEE08FF08F7FE31C0E0916302CB
:10076000F09164020190F081E02D6DE283E692E069
:1007700009958C0122273327A9012C193D094E091F
:100780005F0919A2CE0181967C019AE0892E912CF5
:10079000A12CB12CCA01B901A50194010E949709AD
:1007A000605DF70162937F01211531054105510517
:1007B00089F7CF010E948203080F191F1EC0A701ED
:1007C000960119A28E010F5D1F4F8AE0C82ED12C11
:1007D000E12CF12CCA01B901A70196010E949709E9
:1007E000605DF80162938F012115310541055105C6
:1007F00089F7CF010E9482038C0184E491E00E947A
:100800008203800F911FA1960FB6F894DEBF0FBE32
:10081000CDBFDF91CF911F910F91FF90EF90DF90AF
:10082000CF90BF90AF909F908F9008950E94D30972
:100830001F920F920FB60F9211242F933F934F9355
:100840005F936F937F938F939F93AF93BF93EF9338
:10085000FF9383E692E00E94FF00FF91EF91BF912A
:10086000AF919F918F917F916F915F914F913F9148
:100870002F910F900FBE0F901F9018951F920F92FF
:100880000FB60F9211242F938F939F93EF93FF93A3
:10089000E0917302F09174028081E0917902F0910D
:1008A0007A0282FD12C0908180917C028F5F8F73EB
:1008B00020917D02821751F0E0917C02F0E0ED5929
:1008C000FD4F958F80937C0201C08081FF91EF9155
:1008D0009F918F912F910F900FBE0F901F901895A1
:1008E0001F920F920FB60F9211242F933F938F9365
:1008F0009F93AF93BF938091930190919401A091A6
:100900009501B09196013091920123E0230F2D378C
:1009100020F40196A11DB11D05C026E8230F029603
:10092000A11DB11D20939201809393019093940196
:10093000A0939501B09396018091970190919801B1
:10094000A0919901B0919A010196A11DB11D8093CA
:10095000970190939801A0939901B0939A01BF9148
:10096000AF919F918F913F912F910F900FBE0F905C
:100970001F9018951F920F920FB60F9211242F936C
:100980003F934F935F936F937F938F939F93AF9317
:10099000BF93EF93FF93E0919D01F0919E013097FB
:1009A00009F451C0968DA685B785858591FF04C051
:1009B0009C91892329F447C09C91892309F043C065
:1009C000A389B4899C918589809589238C93868994
:1009D00097890197F1F7608D718DA685B78555854B
:1009E00038E020E0CB010197F1F7822F90E0959558
:1009F0008795282F4C91452309F02068315091F7B5
:100A0000868D81FD209580919C0190E001968F73E9
:100A1000992730919B01381749F0A0919C01B0E0D3
:100A2000AE5ABE4F2C9380939C0103C0868D81608B
:100A3000868F828D938D0197F1F7A389B4899C915C
:100A40008589892B8C93FF91EF91BF91AF919F91F5
:100A50008F917F916F915F914F913F912F910F9067
:100A60000FBE0F901F9018951092660210926502AB
:100A700088EE93E0A0E0B0E0809367029093680274
:100A8000A0936902B0936A0224E231E030936402D9
:100A90002093630225EC30E03093700220936F02C4
:100AA00024EC30E0309372022093710220EC30E0AD
:100AB000309374022093730221EC30E0309376027D
:100AC0002093750222EC30E0309378022093770275
:100AD00026EC30E030937A022093790210927C0267
:100AE00010927D0210927E0210927F0210920303F8
:100AF000109202038093040390930503A0930603CE
:100B0000B093070386E391E0909301038093000381
:100B100010921703109216031092190310921803E3
:100B200010921B0310921A0310921D0310921C03C3
:100B300060911E036E7F6D7F60931E0366956170EA
:100B400081E0682783E00E94930161E083E00E94D6
:100B5000DF01E1EBF0E0E491E0931003EDE9F0E078
:100B6000E491F0E0EE0FFF1FEA57FF4F859194915B
:100B7000909312038093110360E082E00E94DF01F2
:100B800080911E0381FD04C061E082E00E94930118
:100B900082E080930C03E0EBF0E0E491E0930D033E
:100BA000ECE9F0E0E491F0E0EE0FFF1FE057FF4FBB
:100BB0008591949190930F0380930E0308957894F8
:100BC00084B5826084BD84B5816084BD85B5826052
:100BD00085BD85B5816085BD80916E008160809303
:100BE0006E0010928100809181008260809381006C
:100BF000809181008160809381008091800081607C
:100C0000809380008091B10084608093B1008091D6
:100C1000B00081608093B00080917A0084608093FE
:100C20007A0080917A00826080937A0080917A00C5
:100C3000816080937A0080917A00806880937A0046
:100C40001092C10061E08DE00E94DF01E09173022B
:100C5000F091740282E08083E0916F02F091700263
:100C60001082E0917102F09172028FEC80831092F9
:100C70007B02E0917702F091780286E08083E09138
:100C80007502F0917602808180618083E091750227
:100C9000F0917602808188608083E0917502F09106
:100CA0007602808180688083E0917502F0917602FF
:100CB00080818F7D808387E491E00E94820384E4B9
:100CC00091E00E94820361E087E00E94DF0185E0FD
:100CD0008093A50110921B0310921A03109219031E
:100CE0001092180310921703109216038DE991E0E9
:100CF00090931D0380931C0390910C03963108F090
:100D000057C02DEB30E030931703209316032BE9E7
:100D100031E030931903209318032CE231E0309333
:100D20001B0320931A0320916800983050F031E0A3
:100D30009E3008F430E081E001C0880F3A95EAF770
:100D400001C084E0822B80936800983038F09E3098
:100D500040F0963148F020E030E008C02DE630E069
:100D600005C02BE630E002C02CE630E030931403DF
:100D700020931303983030F481E001C0880F9A95D6
:100D8000EAF70EC0292F30E09E3018F428503109C0
:100D900002C02E50310981E001C0880F2A95EAF780
:100DA0008093150380911C0390911D030197F1F727
:100DB00080911A0390911B03892B21F180919D0151
:100DC00090919E0123E080309207E1F0009711F0AE
:100DD0000E94680380911E038E7F80931E031092F1
:100DE0009C0110929B0180E093E090939E01809380
:100DF0009D01E0911303F0911403908180911503FC
:100E0000892B808387E08093A10161E00E94DF014C
:100E100060E087E00E9493018AE196E09093AA0146
:100E20008093A9018DE39EE09093A00180939F01A0
:100E300084E190E09093A3018093A2011092A80115
:100E40001092A70101E0C3ECD0E0F12C10E080E0AB
:100E500093E00E942F03892B29F1FF2029F080E0E5
:100E600093E00E9447030FC0FF24F394103809F069
:100E7000F12C80E093E00E944703E12FF0E0E5557C
:100E8000FE4F80831F5F8091A9019091AA0182305B
:100E90009105E8F2880F991F880F991F0597019710
:100EA000F1F7D5CFF110E4C0173008F4DEC080911F
:100EB000AB01882319F01092A60102C00093A6018D
:100EC000D090A5018D1529F08091A601882309F401
:100ED000D8C0E12EF12C8EEF810F0E944102A701B4
:100EE00045555E4FFA013297208130E0322F22279C
:100EF00031964081242B8217930709F0B9C04091A5
:100F0000AC014093A4012091AD0130E0322F2227A3
:100F10008091AE01282B8091AF0190E0982F882717
:100F20005091B001852BBC01620F731F1091A60177
:100F300011113FC04330E9F54091A2015091A30146
:100F40002417350708F04BC04617570780F1880F64
:100F500015E0180FD092AB018093AD0193E0422FC2
:100F600050E046175707A8F4440F551FFA01E55CF7
:100F7000FD4F30814181E92FF0E0E555FE4F408380
:100F8000E1E0E90FF0E0E555FE4F30839E5F2F5F13
:100F9000E6CF8D5F0E944102212F30E025553E4F64
:100FA000F9013297908331968083812F30C083E09E
:100FB00059C04630B1F0403109F053C08091B101C1
:100FC00090E049E0E41AF1088E159F0509F050C041
:100FD0008091A2019091A30128173907D8F082E0EF
:100FE00041C04091A2015091A30124173507B8F7E1
:100FF000220F331FF901E55CFD4F9183808386E06A
:101000000E9441029093B1018093B20188E00E9456
:10101000CA0237C08617970750F237E0822F90E058
:1010200086179707A0F4A32FB0E0880F991FFC0143
:10103000E55CFD4FA555BE4F11968C9111974C91D3
:1010400090E0942B918380833E5F2F5FE7CF86E013
:101050000E9441029093B1018093B201111111C01D
:10106000D5CF81E00E940B030CC01150173048F41B
:101070008091A7019091A80101969093A801809377
:10108000A701809155029091560290931F01809381
:101090001E01CE010197F1F780913B0290913C0235
:1010A0009093130180931201CE010197F1F7809183
:1010B0003D0290913E029093150180931401CE0160
:1010C0000197F1F780913F029091400290931701B0
:1010D00080931601CE010197F1F780914102909122
:1010E00042029093190180931801CE010197F1F704
:1010F000809143029091440290931B0180931A01C6
:10110000CE010197F1F780914502909146029093AC
:101110001D0180931C01CE010197F1F780914702D8
:101120009091480290932E0280932D02CE01019758
:10113000F1F78091490290914A0290933002809396
:101140002F02CE010197F1F780914B0290914C0252
:101150009093320280933102CE010197F1F7809192
:101160004D0290914E029093340280933302CE014F
:101170000197F1F780914F029091500290933602BF
:1011800080933502CE010197F1F780915102909141
:1011900052029093380280933702CE010197F1F703
:1011A0008091570290915802909305018093040119
:1011B000CE010197F1F78091590290915A029093D4
:1011C000070180930601CE010197F1F780915B0240
:1011D00090915C029093090180930801CE010197E0
:1011E000F1F780915D0290915E0290930B018093E4
:1011F0000A01CE010197F1F780915F0290916002A0
:1012000090930D0180930C01CE010197F1F780912D
:1012100061029091620290930F0180930E01CE01C2
:101220000197F1F78091530290915402909301013C
:1012300080930001CE010197F1F78DE491E00E94C7
:10124000820384E491E00E94820380911E019091C8
:101250001F010E94940380911201909113010E943A
:10126000940380910401909105010E949403809160
:101270000601909107010E949403809108019091CA
:1012800009010E9494030E941B024B015C0184EF40
:10129000C82EDD24D394E12CF12C0E941B02DC012A
:1012A000CB0188199909AA09BB09883E9340A10579
:1012B000B10558F081E0C81AD108E108F10828EE1C
:1012C000820E23E0921EA11CB11CC114D104E104C2
:1012D000F10419F780911E0190911F01029711F4FA
:1012E00060E001C061E08DE00E9493010E948901ED
:1012F000ACCD86E391E0909301038093000380E0FE
:1013000093E00C94680397FB072E16F4009407D023
:1013100077FD09D00E94B90907FC05D03EF49095ED
:1013200081959F4F0895709561957F4F0895A1E233
:101330001A2EAA1BBB1BFD010DC0AA1FBB1FEE1F4F
:10134000FF1FA217B307E407F50720F0A21BB30B9A
:10135000E40BF50B661F771F881F991F1A9469F716
:1013600060957095809590959B01AC01BD01CF0172
:101370000895AA1BBB1B51E107C0AA1FBB1FA617DC
:10138000B70710F0A61BB70B881F991F5A95A9F72E
:1013900080959095BC01CD010895EE0FFF1F05903B
:1013A000F491E02D099481E090E0F8940C94D80930
:1013B00010E0C2E6D0E004C0FE010E94CD092196F3
:0A13C000C336D107C9F7F894FFCF38
:1013CA00C800000001000200030004000500060036
:1013DA0000000100010001000100010001000600F7
:1013EA000000000020018D00B8006701E900C70075
:1013FA00DB000000000076028D007F0340022F030D
:10140A0047035E020D0A00537461727400496C6FDF
:02141A009C0034
:00000001FF
